{
  "_format": "hh-sol-artifact-1",
  "contractName": "AdminRegistry",
  "sourceName": "contracts/AdminRegistry.sol",
  "abi": [
    {
      "inputs": [],
      "stateMutability": "nonpayable",
      "type": "constructor"
    },
    {
      "inputs": [
        {
          "internalType": "address",
          "name": "_admin",
          "type": "address"
        }
      ],
      "name": "addAdmin",
      "outputs": [],
      "stateMutability": "nonpayable",
      "type": "function"
    },
    {
      "inputs": [
        {
          "internalType": "address",
          "name": "",
          "type": "address"
        }
      ],
      "name": "admins",
      "outputs": [
        {
          "internalType": "bool",
          "name": "",
          "type": "bool"
        }
      ],
      "stateMutability": "view",
      "type": "function"
    },
    {
      "inputs": [],
      "name": "getAdmins",
      "outputs": [
        {
          "internalType": "address[]",
          "name": "",
          "type": "address[]"
        }
      ],
      "stateMutability": "view",
      "type": "function"
    },
    {
      "inputs": [
        {
          "internalType": "address",
          "name": "_user",
          "type": "address"
        }
      ],
      "name": "isVerified",
      "outputs": [
        {
          "internalType": "bool",
          "name": "",
          "type": "bool"
        }
      ],
      "stateMutability": "view",
      "type": "function"
    },
    {
      "inputs": [],
      "name": "owner",
      "outputs": [
        {
          "internalType": "address",
          "name": "",
          "type": "address"
        }
      ],
      "stateMutability": "view",
      "type": "function"
    },
    {
      "inputs": [
        {
          "internalType": "address",
          "name": "_admin",
          "type": "address"
        }
      ],
      "name": "removeAdmin",
      "outputs": [],
      "stateMutability": "nonpayable",
      "type": "function"
    }
  ],
  "bytecode": "0x6080604052348015600f57600080fd5b50336000806101000a81548173ffffffffffffffffffffffffffffffffffffffff021916908373ffffffffffffffffffffffffffffffffffffffff1602179055506107d88061005f6000396000f3fe608060405234801561001057600080fd5b50600436106100625760003560e01c80631785f53c1461006757806331ae450b14610083578063429b62e5146100a157806370480275146100d15780638da5cb5b146100ed578063b9209e331461010b575b600080fd5b610081600480360381019061007c919061054c565b61013b565b005b61008b610224565b6040516100989190610637565b60405180910390f35b6100bb60048036038101906100b6919061054c565b6102b2565b6040516100c89190610674565b60405180910390f35b6100eb60048036038101906100e6919061054c565b6102d2565b005b6100f561046f565b604051610102919061069e565b60405180910390f35b6101256004803603810190610120919061054c565b610493565b6040516101329190610674565b60405180910390f35b60008054906101000a900473ffffffffffffffffffffffffffffffffffffffff1673ffffffffffffffffffffffffffffffffffffffff163373ffffffffffffffffffffffffffffffffffffffff16146101c9576040517f08c379a00000000000000000000000000000000000000000000000000000000081526004016101c090610716565b60405180910390fd5b6000600160008373ffffffffffffffffffffffffffffffffffffffff1673ffffffffffffffffffffffffffffffffffffffff16815260200190815260200160002060006101000a81548160ff02191690831515021790555050565b606060028054806020026020016040519081016040528092919081815260200182805480156102a857602002820191906000526020600020905b8160009054906101000a900473ffffffffffffffffffffffffffffffffffffffff1673ffffffffffffffffffffffffffffffffffffffff168152602001906001019080831161025e575b5050505050905090565b60016020528060005260406000206000915054906101000a900460ff1681565b60008054906101000a900473ffffffffffffffffffffffffffffffffffffffff1673ffffffffffffffffffffffffffffffffffffffff163373ffffffffffffffffffffffffffffffffffffffff1614610360576040517f08c379a000000000000000000000000000000000000000000000000000000000815260040161035790610782565b60405180910390fd5b600160008273ffffffffffffffffffffffffffffffffffffffff1673ffffffffffffffffffffffffffffffffffffffff16815260200190815260200160002060009054906101000a900460ff1661046c5760018060008373ffffffffffffffffffffffffffffffffffffffff1673ffffffffffffffffffffffffffffffffffffffff16815260200190815260200160002060006101000a81548160ff0219169083151502179055506002819080600181540180825580915050600190039060005260206000200160009091909190916101000a81548173ffffffffffffffffffffffffffffffffffffffff021916908373ffffffffffffffffffffffffffffffffffffffff1602179055505b50565b60008054906101000a900473ffffffffffffffffffffffffffffffffffffffff1681565b6000600160008373ffffffffffffffffffffffffffffffffffffffff1673ffffffffffffffffffffffffffffffffffffffff16815260200190815260200160002060009054906101000a900460ff169050919050565b600080fd5b600073ffffffffffffffffffffffffffffffffffffffff82169050919050565b6000610519826104ee565b9050919050565b6105298161050e565b811461053457600080fd5b50565b60008135905061054681610520565b92915050565b600060208284031215610562576105616104e9565b5b600061057084828501610537565b91505092915050565b600081519050919050565b600082825260208201905092915050565b6000819050602082019050919050565b6105ae8161050e565b82525050565b60006105c083836105a5565b60208301905092915050565b6000602082019050919050565b60006105e482610579565b6105ee8185610584565b93506105f983610595565b8060005b8381101561062a57815161061188826105b4565b975061061c836105cc565b9250506001810190506105fd565b5085935050505092915050565b6000602082019050818103600083015261065181846105d9565b905092915050565b60008115159050919050565b61066e81610659565b82525050565b60006020820190506106896000830184610665565b92915050565b6106988161050e565b82525050565b60006020820190506106b3600083018461068f565b92915050565b600082825260208201905092915050565b7f4f6e6c79206f776e65722063616e2072656d6f76650000000000000000000000600082015250565b60006107006015836106b9565b915061070b826106ca565b602082019050919050565b6000602082019050818103600083015261072f816106f3565b9050919050565b7f4f6e6c79206f776e65722063616e206164640000000000000000000000000000600082015250565b600061076c6012836106b9565b915061077782610736565b602082019050919050565b6000602082019050818103600083015261079b8161075f565b905091905056fea26469706673582212205d94878c211a5989ce3e3988ddb910142511674e8f327a3b7aa7d8d4c5a30ad964736f6c634300081c0033",
  "linkReferences": {},
  "deployedLinkReferences": {}
}